S01900004C45445F53657175656E63655F76322E302E7372656339
S11300000C942A000C94AF020C94D6020C94FD02BA
S11300100C943C000C943C000C943C000C943C006C
S11300200C943C000C943C000C943C000C943C005C
S11300300C943C000C943C000C943C000C943C004C
S11300400C943C000C943C000C943C000C943C003C
S11300500C943C0011241FBECFE5D8E0DEBFCDBF19
S113006020E0A0E6B0E001C01D92AB36B207E1F794
S11300700E941C010C9424030C94000080916400E1
S1130080883021F481E080936400089580916400B5
S11300908F5F8093640008951F93CF93DF93CDB750
S11300A0DEB728970FB6F894DEBF0FBECDBF198216
S11300B01A821B8281E08C831D8282E08E831F82E0
S11300C083E08887CE0101960E940601182FCE0195
S11300D003960E940601182BCE0105960E94060184
S11300E0182BCE0107960E940601182BE0E6F0E0DB
S11300F0108211828EE390E093838283CF010E9469
S1130100D500812B789428960FB6F894DEBF0FBEE5
S1130110CDBFDF91CF911F9108958091640081300C
S113012029F460E080E00E94120108958091640047
S1130130823029F461E080E00E94120108958091E8
S11301406400833029F462E080E00E941201089583
S113015080916400843029F463E080E00E941201FD
S1130160089580916400853029F460E080E00E9465
S11301701701089580916400863029F461E080E0DD
S11301800E941701089580916400873029F462E089
S113019080E00E941701089580916400883021F462
S11301A063E080E00E9417010895CF93DF930097E6
S11301B039F1EC01688189810E943602888181309D
S11301C069F018F0823099F01DC08A819B810E94E9
S11301D0910288810E947A0280E015C08A819B8105
S11301E00E949B0288810E947A0280E00CC08A816E
S11301F09B810E94A50288810E947A0280E003C04C
S113020081E001C081E0DF91CF910895009741F032
S1130210FC0141E0618180810E94260180E0089513
S113022081E0089541E00E94AE0180E0089540E03D
S11302300E94AE0180E008950E944C00811103C029
S11302400E948D00FDCF80E090E00895813029F177
S113025038F0823009F43EC0833009F458C074C0C9
S1130260413061F42AB381E090E002C0880F991F05
S11302706A95E2F7822B8ABB80E00895411166C03B
S11302802AB381E090E002C0880F991F6A95E2F7D3
S1130290809582238ABB80E00895413061F427B3BE
S11302A081E090E002C0880F991F6A95E2F7822BE3
S11302B087BB80E0089541114BC027B381E090E0F3
S11302C002C0880F991F6A95E2F78095822387BB45
S11302D080E00895413061F424B381E090E002C0ED
S11302E0880F991F6A95E2F7822B84BB80E00895FA
S11302F0411130C024B381E090E002C0880F991FFF
S11303006A95E2F78095822384BB80E008954130AA
S113031061F421B381E090E002C0880F991F6A95CF
S1130320E2F7822B81BB80E00895411115C021B30F
S113033081E090E002C0880F991F6A95E2F78095EA
S1130340822381BB80E0089580E0089581E00895D0
S113035081E0089581E0089581E00895813029F1D4
S113036038F0823009F43EC0833009F458C074C0B8
S1130370413061F42BB381E090E002C0880F991FF3
S11303806A95E2F7822B8BBB80E00895411166C029
S11303902BB381E090E002C0880F991F6A95E2F7C1
S11303A0809582238BBB80E00895413061F428B3AB
S11303B081E090E002C0880F991F6A95E2F7822BD2
S11303C088BB80E0089541114BC028B381E090E0E0
S11303D002C0880F991F6A95E2F78095822388BB33
S11303E080E00895413061F425B381E090E002C0DB
S11303F0880F991F6A95E2F7822B85BB80E00895E8
S1130400411130C025B381E090E002C0880F991FEC
S11304106A95E2F78095822385BB80E00895413098
S113042061F422B381E090E002C0880F991F6A95BD
S1130430E2F7822B82BB80E00895411115C022B3FC
S113044081E090E002C0880F991F6A95E2F78095D9
S1130450822382BB80E0089580E0089581E00895BE
S113046081E0089581E0089581E008956130C1F04C
S113047018F0623049F136C0811108C085B7816037
S113048085BF85B7826085BF80E00895813061F5BE
S113049085B78E7F85BF85B7826085BF80E008956C
S11304A0811108C085B7846085BF85B7886085BF22
S11304B080E008958130D1F485B78B7F85BF85B7FF
S11304C0886085BF80E00895811105C084B7806489
S11304D084BF80E00895813059F484B78F7B84BF52
S11304E080E0089581E0089581E0089581E0089511
S11304F081E00895813049F018F0823059F00FC03E
S11305008BB780648BBF80E008958BB780688BBF06
S113051080E008958BB780628BBF80E0089581E00E
S11305200895009731F090936A008093690080E009
S1130530089581E00895009731F0909368008093C6
S1130540670080E0089581E00895009731F090936A
S113055066008093650080E0089581E008951F920D
S11305600F920FB60F9211242F933F934F935F93E3
S11305706F937F938F939F93AF93BF93EF93FF9367
S1130580E0916900F0916A000995FF91EF91BF91A4
S1130590AF919F918F917F916F915F914F913F9117
S11305A02F910F900FBE0F901F9018951F920F92CE
S11305B00FB60F9211242F933F934F935F936F9332
S11305C07F938F939F93AF93BF93EF93FF93E091A8
S11305D06700F09168000995FF91EF91BF91AF9189
S11305E09F918F917F916F915F914F913F912F9147
S11305F00F900FBE0F901F9018951F920F920FB679
S11306000F9211242F933F934F935F936F937F9394
S11306108F939F93AF93BF93EF93FF93E091650004
S1130620F09166000995FF91EF91BF91AF919F9171
S11306308F917F916F915F914F913F912F910F9087
S10F06400FBE0F901F901895F894FFCF88
S9030000FC
