S01900004C65645F53657175656E63655F76312E302E73726563FA
S11300000C942A000C943C000C943C000C943C008E
S11300100C943C000C943C000C943C000C943C006C
S11300200C943C000C943C000C943C000C943C005C
S11300300C943C000C943C000C943C000C943C004C
S11300400C943C000C943C000C943C000C943C003C
S11300500C943C0011241FBECFE5D8E0DEBFCDBF19
S113006020E0A0E6B0E001C01D92A136B207E1F79E
S11300700E946E010C94EF020C9400001F93CF9326
S1130080DF93CDB7DEB72A970FB6F894DEBF0FBE65
S1130090CDBF41E064E080E00E94000219821A8230
S11300A01B8281E08C831D8282E08E831F8283E029
S11300B08887198684E08A87CE0101960E945801B8
S11300C0182FCE0103960E945801182BCE010596D5
S11300D00E945801182BCE0107960E945801182B34
S11300E0CE0109960E944801812B2A960FB6F894F6
S11300F0DEBF0FBECDBFDF91CF911F910895CF9387
S1130100DF931F92CDB7DEB7AE014F5F5F4F64E060
S113011080E00E94540180916000811107C09981A0
S1130120913021F481E080936000AEC0813039F4D5
S11301309981911104C082E080936000A5C082304F
S113014059F49981913041F460E080E00E946401A7
S113015083E08093600098C0833039F499819111D1
S113016004C084E0809360008FC0843059F4998186
S1130170913041F461E080E00E94640185E0809365
S1130180600082C0853039F49981911104C086E001
S11301908093600079C0863059F49981913041F49C
S11301A062E080E00E94640187E0809360006CC09C
S11301B0873039F49981911104C088E080936000FC
S11301C063C0883059F49981913041F463E080E050
S11301D00E94640189E08093600056C0893039F43C
S11301E09981911104C08AE0809360004DC08A30E7
S11301F059F49981913041F460E080E00E946901F2
S11302008BE08093600040C08B3039F49981911168
S113021004C08CE08093600037C08C3059F499811D
S1130220913041F461E080E00E9469018DE08093A7
S113023060002AC08D3039F49981911104C08EE098
S11302408093600021C08E3059F49981913041F43B
S113025062E080E00E9469018FE08093600014C036
S11302608F3039F49981911104C080E1809360004A
S11302700BC0803149F48981813031F463E080E03E
S11302800E946901109260000F90DF91CF91089550
S1130290009741F0FC0140E0618180810E94780177
S11302A080E0089581E008950E94880280E0089526
S11302B0009741F0FC0141E0618180810E94780156
S11302C080E0089581E0089541E00E94000280E00A
S11302D0089540E00E94000280E008950E943E00DC
S11302E0811103C00E947F00FDCF80E090E008955B
S11302F0813029F138F0823009F43EC0833009F4AA
S113030058C074C0413061F42AB381E090E002C067
S1130310880F991F6A95E2F7822B8ABB80E00895C3
S1130320411166C02AB381E090E002C0880F991F92
S11303306A95E2F7809582238ABB80E00895413074
S113034061F427B381E090E002C0880F991F6A9599
S1130350E2F7822B87BB80E0089541114BC027B39D
S113036081E090E002C0880F991F6A95E2F78095BA
S1130370822387BB80E00895413061F424B381E097
S113038090E002C0880F991F6A95E2F7822B84BB24
S113039080E00895411130C024B381E090E002C0B0
S11303A0880F991F6A95E2F78095822384BB80E0C9
S11303B00895413061F421B381E090E002C0880FD8
S11303C0991F6A95E2F7822B81BB80E00895411161
S11303D015C021B381E090E002C0880F991F6A958F
S11303E0E2F78095822381BB80E0089580E0089540
S11303F081E0089581E0089581E0089581E0089501
S1130400813029F138F0823009F43EC0833009F498
S113041058C074C0413061F42BB381E090E002C055
S1130420880F991F6A95E2F7822B8BBB80E00895B1
S1130430411166C02BB381E090E002C0880F991F80
S11304406A95E2F7809582238BBB80E00895413062
S113045061F428B381E090E002C0880F991F6A9587
S1130460E2F7822B88BB80E0089541114BC028B38A
S113047081E090E002C0880F991F6A95E2F78095A9
S1130480822388BB80E00895413061F425B381E084
S113049090E002C0880F991F6A95E2F7822B85BB12
S11304A080E00895411130C025B381E090E002C09E
S11304B0880F991F6A95E2F78095822385BB80E0B7
S11304C00895413061F422B381E090E002C0880FC6
S11304D0991F6A95E2F7822B82BB80E0089541114F
S11304E015C022B381E090E002C0880F991F6A957D
S11304F0E2F78095822382BB80E0089580E008952E
S113050081E0089581E0089581E0089581E00895EF
S11305108130F1F030F0823091F1833009F446C03B
S11305205CC079B381E090E09C01062E02C0220FEA
S1130530331F0A94E2F7872F90E08223932302C0AB
S1130540959587956A95E2F7FA01808380E008958E
S113055076B381E090E09C01062E02C0220F331F87
S11305600A94E2F7872F90E08223932302C09595A3
S113057087956A95E2F7FA01808380E0089573B362
S113058081E090E09C01062E02C0220F331F0A94E2
S1130590E2F7872F90E08223932302C095958795F5
S11305A06A95E2F7FA01808380E0089570B381E0F0
S11305B090E09C01062E02C0220F331F0A94E2F73A
S11305C0872F90E08223932302C0959587956A959F
S11305D0E2F7FA01808380E0089581E00895F894B9
S10505E0FFCF47
S9030000FC
