:100000000C942A000C94F4080C941B090C944209DB
:100010000C943C000C943C000C943C000C943C0070
:100020000C943C000C943C000C940D0A0C94E609D2
:100030000C943C000C943C000C943C000C943C0050
:100040000C943C000C943C000C943C000C943C0040
:100050000C943C0011241FBECFE5D8E0DEBFCDBF1D
:1000600020E0A0E6B0E001C01D92AA37B207E1F798
:100070000E9461070C94340A0C94000080916D007A
:10008000843019F410926D0005C080916D008F5F6F
:1000900080936D0010926F00089580916F008F5FC4
:1000A00080936F0080916F008A3011F410926F007E
:1000B000089580916E00811108C080E094E00E9454
:1000C0005E0781E080936E000DC080916E008830E5
:1000D00021F481E080936E0005C080916E008F5FF7
:1000E00080936E0010926F0008950F931F93CF932B
:1000F000DF93CDB7DEB728970FB6F894DEBF0FBEFB
:10010000CDBF19821A821B8201E00C831D8282E01E
:100110008E831F8283E08887CE0101960E94FB06B2
:10012000182FCE0103960E94FB06182BCE010596D0
:100130000E94FB06182BCE0107960E94FB06182B87
:10014000E9E6F0E01082118289E590E093838283F2
:10015000E5E6F0E0008311828EE390E093838283F2
:1001600089E690E00E94CA06182B85E690E00E947E
:10017000CA06182BE0E6F0E00083118281E6848352
:100180008DE490E093838283CF010E941107812B3D
:10019000789428960FB6F894DEBF0FBECDBFDF91DE
:1001A000CF911F910F91089580916E00813009F0D9
:1001B0009FC080916D00882389F019C080916F00E5
:1001C000811104C060E00E94070708C080916F00A1
:1001D000882321F060E080E00E940C0780916D0090
:1001E0008111D7C580916E00813041F308958091CF
:1001F0006D008130E1F411C080916F00823028F4ED
:1002000060E080E00E94070708C080916F008230A4
:1002100020F060E080E00E940C0780916D0081304A
:1002200009F0B7C580916E00813031F30895809157
:100230006D008230E1F411C080916F00833028F4AA
:1002400060E080E00E94070708C080916F00833063
:1002500020F060E080E00E940C0780916D00823009
:1002600009F097C580916E00813031F30895809137
:100270006D008330E1F411C080916F00853028F467
:1002800060E080E00E94070708C080916F00853021
:1002900020F060E080E00E940C0780916D008330C8
:1002A00009F077C580916E00813031F30895809117
:1002B0006D00843009F06DC511C080916F008830E9
:1002C00028F460E080E00E94070708C080916F007A
:1002D000883020F060E080E00E940C0780916D0083
:1002E000843009F056C580916E00813031F3089555
:1002F00080916E00823009F0C7C080916D00882324
:10030000C9F021C080916F00811108C060E00E9497
:10031000070761E080E00E9407070CC080916F0032
:10032000882341F060E080E00E940C0761E080E0FB
:100330000E940C0780916D0081112BC580916E0089
:10034000823001F3089580916D00813021F519C04C
:1003500080916F00823048F460E080E00E940707DF
:1003600061E080E00E9407070CC080916F0082303E
:1003700040F060E080E00E940C0761E080E00E94B5
:100380000C0780916D00813009F003C580916E00EB
:100390008230F1F2089580916D00823021F519C00C
:1003A00080916F00833048F460E080E00E9407078E
:1003B00061E080E00E9407070CC080916F008330ED
:1003C00040F060E080E00E940C0761E080E00E9465
:1003D0000C0780916D00823009F0DBC480916E00C3
:1003E0008230F1F2089580916D00833021F519C0BB
:1003F00080916F00853048F460E080E00E9407073C
:1004000061E080E00E9407070CC080916F0085309A
:1004100040F060E080E00E940C0761E080E00E9414
:100420000C0780916D00833009F0B3C480916E0099
:100430008230F1F2089580916D00843009F0A9C4F2
:1004400019C080916F00883048F460E080E00E941D
:10045000070761E080E00E9407070CC080916F00F1
:10046000883040F060E080E00E940C0761E080E0AE
:100470000E940C0780916D00843009F08AC480913D
:100480006E008230F1F2089580916E00833009F0A1
:10049000EFC080916D00882309F129C080916F0021
:1004A00081110CC060E00E94070761E080E00E94BB
:1004B000070762E080E00E94070710C080916F008C
:1004C000882361F060E080E00E940C0761E080E03A
:1004D0000E940C0762E080E00E940C0780916D0092
:1004E000811157C480916E008330C1F208958091CC
:1004F0006D00813061F521C080916F00823068F419
:1005000060E080E00E94070761E080E00E9407074A
:1005100062E080E00E94070710C080916F00823087
:1005200060F060E080E00E940C0761E080E00E94E3
:100530000C0762E080E00E940C0780916D00813022
:1005400009F027C480916E008330B1F20895809144
:100550006D00823061F521C080916F00833068F4B6
:1005600060E080E00E94070761E080E00E940707EA
:1005700062E080E00E94070710C080916F00833026
:1005800060F060E080E00E940C0761E080E00E9483
:100590000C0762E080E00E940C0780916D008230C1
:1005A00009F0F7C380916E008330B1F20895809115
:1005B0006D00833061F521C080916F00853068F453
:1005C00060E080E00E94070761E080E00E9407078A
:1005D00062E080E00E94070710C080916F008530C4
:1005E00060F060E080E00E940C0761E080E00E9423
:1005F0000C0762E080E00E940C0780916D00833060
:1006000009F0C7C380916E008330B1F208958091E4
:100610006D00843009F0BDC321C080916F00883027
:1006200068F460E080E00E94070761E080E00E94DB
:10063000070762E080E00E94070710C080916F000A
:10064000883060F060E080E00E940C0761E080E0AC
:100650000E940C0762E080E00E940C0780916D0010
:10066000843009F096C380916E008330B1F2089512
:1006700080916E00843009F017C180916D0088234D
:1006800049F131C080916F00811110C060E00E947B
:10069000070761E080E00E94070762E080E00E94B7
:1006A000070763E080E00E94070714C080916F0095
:1006B000882381F060E080E00E940C0761E080E028
:1006C0000E940C0762E080E00E940C0763E080E07B
:1006D0000E940C0780916D0081115BC380916E00B8
:1006E000843081F2089580916D008130A1F529C098
:1006F00080916F00823088F460E080E00E940707FC
:1007000061E080E00E94070762E080E00E94070746
:1007100063E080E00E94070714C080916F00823080
:1007200080F060E080E00E940C0761E080E00E94C1
:100730000C0762E080E00E940C0763E080E00E940A
:100740000C0780916D00813009F023C380916E0009
:10075000843071F2089580916D008230A1F529C036
:1007600080916F00833088F460E080E00E9407078A
:1007700061E080E00E94070762E080E00E940707D6
:1007800063E080E00E94070714C080916F0083300F
:1007900080F060E080E00E940C0761E080E00E9451
:1007A0000C0762E080E00E940C0763E080E00E949A
:1007B0000C0780916D00823009F0EBC280916E00D1
:1007C000843071F2089580916D008330A1F529C0C5
:1007D00080916F00853088F460E080E00E94070718
:1007E00061E080E00E94070762E080E00E94070766
:1007F00063E080E00E94070714C080916F0085309D
:1008000080F060E080E00E940C0761E080E00E94E0
:100810000C0762E080E00E940C0763E080E00E9429
:100820000C0780916D00833009F0B3C280916E0097
:10083000843071F2089580916D00843009F0A9C26E
:1008400029C080916F00883088F460E080E00E94C9
:10085000070761E080E00E94070762E080E00E94F5
:10086000070763E080E00E94070714C080916F00D3
:10087000883080F060E080E00E940C0761E080E05A
:100880000E940C0762E080E00E940C0763E080E0B9
:100890000E940C0780916D00843009F07AC280912B
:1008A0006E00843071F2089580916E00853009F0F9
:1008B000F3C060E080E00E940C0780916D00882307
:1008C00009F129C080916F0081110CC061E00E9484
:1008D000070762E080E00E94070763E080E00E9473
:1008E000070710C080916F00882361F061E080E00D
:1008F0000E940C0762E080E00E940C0763E080E049
:100900000E940C0780916D00811143C280916E009E
:100910008530C1F2089580916D00813061F521C06C
:1009200080916F00823068F461E080E00E940707E8
:1009300062E080E00E94070763E080E00E94070712
:1009400010C080916F00823060F061E080E00E9412
:100950000C0762E080E00E940C0763E080E00E94E8
:100960000C0780916D00813009F013C280916E00F8
:100970008530B1F2089580916D00823061F521C01B
:1009800080916F00833068F461E080E00E94070787
:1009900062E080E00E94070763E080E00E940707B2
:1009A00010C080916F00833060F061E080E00E94B1
:1009B0000C0762E080E00E940C0763E080E00E9488
:1009C0000C0780916D00823009F0E3C180916E00C8
:1009D0008530B1F2089580916D00833061F521C0BA
:1009E00080916F00853068F461E080E00E94070725
:1009F00062E080E00E94070763E080E00E94070752
:100A000010C080916F00853060F061E080E00E944E
:100A10000C0762E080E00E940C0763E080E00E9427
:100A20000C0780916D00833009F0B3C180916E0096
:100A30008530B1F2089580916D00843009F0A9C12C
:100A400021C080916F00883068F461E080E00E94EE
:100A5000070762E080E00E94070763E080E00E94F1
:100A6000070710C080916F00883060F061E080E07F
:100A70000E940C0762E080E00E940C0763E080E0C7
:100A80000E940C0780916D00843009F082C1809132
:100A90006E008530B1F2089580916E00863009F0C5
:100AA000CBC061E080E00E940C0780916D0088233C
:100AB000C9F021C080916F00811108C062E00E94DE
:100AC000070763E080E00E9407070CC080916F0079
:100AD000882341F062E080E00E940C0763E080E040
:100AE0000E940C0780916D00811153C180916E00AE
:100AF000863001F3089580916D00813021F519C091
:100B000080916F00823048F462E080E00E94070725
:100B100063E080E00E9407070CC080916F00823084
:100B200040F062E080E00E940C0763E080E00E94F9
:100B30000C0780916D00813009F02BC180916E000F
:100B40008630F1F2089580916D00823021F519C050
:100B500080916F00833048F462E080E00E940707D4
:100B600063E080E00E9407070CC080916F00833033
:100B700040F062E080E00E940C0763E080E00E94A9
:100B80000C0780916D00823009F003C180916E00E6
:100B90008630F1F2089580916D00833021F519C0FF
:100BA00080916F00853048F462E080E00E94070782
:100BB00063E080E00E9407070CC080916F008530E1
:100BC00040F062E080E00E940C0763E080E00E9459
:100BD0000C0780916D00833009F0DBC080916E00BE
:100BE0008630F1F2089580916D00843009F0D1C013
:100BF00019C080916F00883048F462E080E00E9464
:100C0000070763E080E00E9407070CC080916F0037
:100C1000883040F062E080E00E940C0763E080E0F2
:100C20000E940C0780916D00843009F0B2C0809161
:100C30006E008630F1F2089580916E00873009F0E1
:100C4000A0C062E080E00E940C0780916D008823C4
:100C500089F019C080916F00811104C063E00E9487
:100C6000070708C080916F00882321F063E080E0CF
:100C70000E940C0780916D0081118BC080916E00E5
:100C8000873041F3089580916D008130E1F411C007
:100C900080916F00823028F463E080E00E940707B3
:100CA00008C080916F00823020F063E080E00E94F5
:100CB0000C0780916D00813009F06BC080916E004F
:100CC000873031F3089580916D008230E1F411C0D6
:100CD00080916F00833028F463E080E00E94070772
:100CE00008C080916F00833020F063E080E00E94B4
:100CF0000C0780916D00823009F04BC080916E002E
:100D0000873031F3089580916D008330D9F411C09C
:100D100080916F00853028F463E080E00E9407072F
:100D200008C080916F00853020F063E080E00E9471
:100D30000C0780916D00833061F580916E008730E3
:100D400039F3089580916D00843019F511C08091B8
:100D50006F00883028F463E080E00E94070708C035
:100D600080916F00883020F063E080E00E940C07E3
:100D700080916D00843069F480916E00873039F382
:100D8000089580916E00883021F463E080E00E9435
:100D90000C070895CF93DF93009739F1EC01688138
:100DA00089810E947B088881813069F018F0823047
:100DB00099F01DC08A819B810E94D60888810E947B
:100DC000BF0880E015C08A819B810E94E00888816D
:100DD0000E94BF0880E00CC08A819B810E94EA08C3
:100DE00088810E94BF0880E003C081E001C081E0EB
:100DF000DF91CF910895009741F0FC0141E06181BE
:100E000080810E946B0780E0089581E0089541E0B1
:100E10000E94F30780E0089540E00E94F30780E01D
:100E200008951F93CF93DF93EC0188818130F9F00F
:100E300028F08230A9F18330B1F13AC080E00E94FD
:100E400069098981811104C00E94BE0910E007C0B0
:100E5000813021F40E94C20910E001C011E08C81B0
:100E60000E94CE098A819B810E94D20922C081E022
:100E70000E9469098981811104C00E94C60910E09D
:100E800007C0813021F40E94CA0910E001C011E0BE
:100E90008C810E94D0098A819B810E94DC0909C053
:100EA00082E00E94690983E00E94690911E001C0A3
:100EB00011E0812FDF91CF911F9108950E94930936
:100EC00008950E947500811103C00E94D400FDCFD7
:100ED00080E090E00895813029F138F0823009F403
:100EE0003EC0833009F458C074C0413061F42AB365
:100EF00081E090E002C0880F991F6A95E2F7822B8B
:100F00008ABB80E00895411166C02AB381E090E079
:100F100002C0880F991F6A95E2F7809582238ABBE9
:100F200080E00895413061F427B381E090E002C091
:100F3000880F991F6A95E2F7822B87BB80E008959E
:100F400041114BC027B381E090E002C0880F991F88
:100F50006A95E2F78095822387BB80E0089541304F
:100F600061F424B381E090E002C0880F991F6A9574
:100F7000E2F7822B84BB80E00895411130C024B396
:100F800081E090E002C0880F991F6A95E2F7809592
:100F9000822384BB80E00895413061F421B381E075
:100FA00090E002C0880F991F6A95E2F7822B81BBFF
:100FB00080E00895411115C021B381E090E002C0A6
:100FC000880F991F6A95E2F78095822381BB80E0A4
:100FD000089580E0089581E0089581E0089581E01A
:100FE000089581E00895813029F138F0823009F4C4
:100FF0003EC0833009F458C074C0413061F42BB353
:1010000081E090E002C0880F991F6A95E2F7822B79
:101010008BBB80E00895411166C02BB381E090E066
:1010200002C0880F991F6A95E2F7809582238BBBD7
:1010300080E00895413061F428B381E090E002C07F
:10104000880F991F6A95E2F7822B88BB80E008958C
:1010500041114BC028B381E090E002C0880F991F76
:101060006A95E2F78095822388BB80E0089541303D
:1010700061F425B381E090E002C0880F991F6A9562
:10108000E2F7822B85BB80E00895411130C025B383
:1010900081E090E002C0880F991F6A95E2F7809581
:1010A000822385BB80E00895413061F422B381E062
:1010B00090E002C0880F991F6A95E2F7822B82BBED
:1010C00080E00895411115C022B381E090E002C094
:1010D000880F991F6A95E2F78095822382BB80E092
:1010E000089580E0089581E0089581E0089581E009
:1010F000089581E008956130C1F018F0623049F13F
:1011000036C0811108C085B7816085BF85B7826010
:1011100085BF80E00895813061F585B78E7F85BFFA
:1011200085B7826085BF80E00895811108C085B7CA
:10113000846085BF85B7886085BF80E00895813071
:10114000D1F485B78B7F85BF85B7886085BF80E088
:101150000895811105C084B7806484BF80E008953C
:10116000813059F484B78F7B84BF80E0089581E09B
:10117000089581E0089581E0089581E00895813027
:1011800049F018F0823059F00FC08BB780648BBFE4
:1011900080E008958BB780688BBF80E008958BB79F
:1011A00080628BBF80E0089581E00895009731F060
:1011B000909375008093740080E0089581E0089515
:1011C000009731F0909373008093720080E008954F
:1011D00081E00895009731F0909371008093700042
:1011E00080E0089581E008951F920F920FB60F924C
:1011F00011242F933F934F935F936F937F938F931C
:101200009F93AF93BF93EF93FF93E0917400F0919E
:1012100075000995FF91EF91BF91AF919F918F91CB
:101220007F916F915F914F913F912F910F900FBEE2
:101230000F901F9018951F920F920FB60F921124C6
:101240002F933F934F935F936F937F938F939F93CE
:10125000AF93BF93EF93FF93E0917200F09173000F
:101260000995FF91EF91BF91AF919F918F917F91E0
:101270006F915F914F913F912F910F900FBE0F9003
:101280001F9018951F920F920FB60F9211242F9353
:101290003F934F935F936F937F938F939F93AF93FE
:1012A000BF93EF93FF93E0917000F0917100099567
:1012B000FF91EF91BF91AF919F918F917F916F912E
:1012C0005F914F913F912F910F900FBE0F901F9004
:1012D0001895813071F028F0823099F08330C9F090
:1012E00020C083B78F7B83BF83B7877F83BF80E0B6
:1012F000089583B7886083BF83B78F7B83BF80E007
:10130000089583B7886083BF83B7806483BF80E01C
:10131000089583B7806483BF83B7877F83BF80E0EE
:10132000089581E008958130910529F483B78160A3
:1013300083BF80E008958830910529F483B78260E7
:1013400083BF80E008958034910529F483B78360DA
:1013500083BF80E00895811521E0920729F483B7C7
:10136000846083BF80E008958115944029F483B799
:10137000856083BF80E0089581E0089589B781602A
:1013800089BF089589B78E7F89BF089589B7826024
:1013900089BF089589B78D7F89BF089582BF089559
:1013A0008CBF0895009731F0909379008093780076
:1013B00080E0089581E00895009731F090937700E0
:1013C0008093760080E0089581E008951F920F9247
:1013D0000FB60F9211242F933F934F935F936F9308
:1013E0007F938F939F93AF93BF93EF93FF93E0917E
:1013F0007800F09179000995FF91EF91BF91AF913D
:101400009F918F917F916F915F914F913F912F911C
:101410000F900FBE0F901F9018951F920F920FB64E
:101420000F9211242F933F934F935F936F937F936A
:101430008F939F93AF93BF93EF93FF93E0917600C9
:10144000F09177000995FF91EF91BF91AF919F9136
:101450008F917F916F915F914F913F912F910F905D
:0C1460000FBE0F901F901895F894FFCF5E
:00000001FF
